:020000040000FA
:100000000002040000000000AC020000AC0200008E
:10001000AC020000AC020000AC020000AC02000028
:10002000AC020000AC020000AC020000F43600009C
:1000300004370000AC020000AC020000AC0200007B
:10004000AC020000AC020000AC020000AC020000F8
:10005000AC020000B0290000AC020000AC020000BD
:10006000AC020000AC020000AC020000AC020000D8
:10007000AC020000AC020000AC020000AC020000C8
:10008000AC020000AC020000AC020000AC020000B8
:10009000AC020000AC020000AC020000AC020000A8
:1000A000842A0000AC020000AC020000AC02000098
:1000B000AC020000AC020000AC020000AC02000088
:1000C000AC020000AC020000AC020000AC02000078
:1000D000AC020000AC020000AC020000AC02000068
:1000E000AC020000AC020000AC020000AC02000058
:1000F000AC020000AC020000AC020000AC02000048
:10010000AC020000AC020000AC020000AC02000037
:10011000AC020000AC020000AC020000AC02000027
:10012000AC020000AC020000AC020000AC02000017
:10013000AC020000AC020000AC020000AC02000007
:10014000AC020000AC020000AC020000AC020000F7
:10015000AC020000AC020000AC020000AC020000E7
:10016000AC020000AC020000AC020000AC020000D7
:10017000AC020000AC020000AC020000AC020000C7
:10018000AC020000AC020000AC020000AC020000B7
:10019000AC020000AC020000AC020000AC020000A7
:1001A000AC020000AC020000AC020000AC02000097
:1001B000AC020000AC020000AC020000AC02000087
:1001C000AC020000AC020000AC020000AC02000077
:1001D000AC020000AC020000AC020000AC02000067
:1001E000AC020000AC020000AC020000AC02000057
:1001F000AC020000AC020000AC020000AC02000047
:10020000FFFFFF00FFFFFF00AC020000AC02000098
:10021000AC020000AC020000AC020000AC02000026
:10022000AC020000AC020000AC020000F43600009A
:1002300004370000AC020000AC020000AC02000079
:10024000AC020000AC020000AC020000AC020000F6
:10025000AC020000B0290000AC020000AC020000BB
:10026000AC020000AC020000AC020000AC020000D6
:10027000AC020000AC020000AC020000AC020000C6
:10028000AC020000AC020000AC020000AC020000B6
:10029000AC020000AC020000AC020000AC020000A6
:1002A000842A0000AC020000AC020000AC02000096
:1002B000AC020000AC020000AC020000AC02000086
:1002C000AC020000AC020000AC020000AC02000076
:1002D000AC020000AC020000AC020000AC02000066
:1002E000AC020000AC020000AC020000AC02000056
:1002F000AC020000AC020000AC020000AC02000046
:10030000AC020000AC020000AC020000AC02000035
:10031000AC020000AC020000AC020000AC02000025
:10032000AC020000AC020000AC020000AC02000015
:10033000AC020000AC020000AC020000AC02000005
:10034000AC020000AC020000AC020000AC020000F5
:10035000AC020000AC020000AC020000AC020000E5
:10036000AC020000AC020000AC020000AC020000D5
:10037000AC020000AC020000AC020000AC020000C5
:10038000AC020000AC020000AC020000AC020000B5
:10039000AC020000AC020000AC020000AC020000A5
:1003A000AC020000AC020000AC020000AC02000095
:1003B000AC020000AC020000AC020000AC02000085
:1003C000AC020000AC020000AC020000AC02000075
:1003D000AC020000AC020000AC020000AC02000065
:1003E000AC020000AC020000AC020000AC02000055
:1003F000AC020000AC020000AC020000AC02000045
:100400008FCC20000E7F22000E018800000000002B
:100410000C00070080642300010020001F0007007B
:10042000000020000000E000020032000000020096
:1004300000000000DC330200000000000040DA0091
:100440000000FE004440A900C02020000000E000A1
:100450000300320000002000A00188004440A800F2
:1004600000000600F03FB1000180B1000600350039
:10047000EE03090000000000403FB1000180B10020
:10048000FBFF3D001000B000203FB000020035002F
:1004900000800900000000000000060091018800B3
:1004A000800078000000EB0015003700E28040007B
:1004B00032A0B4009101BA00E280400032A0B40042
:1004C0009102BA00E280400032A0B4000002EB00CA
:1004D000472BDE00F507B200602CE10004003A0073
:1004E0000059EB008301E900FDFF3E0004003700E6
:1004F0006128E100010032000082EB0004000700E7
:100500001101BA000200E000E8FF3A000000060016
:100510003159BA008301E9000C0032002159BA00B8
:100520008301E900080032000400E00003003A0003
:10053000E280400032A0B400F5FF370011D9BA00C4
:100540008301E900FAFF3A008100E800E180400001
:1005500032A0B400000006000040DA000000FE00F7
:10056000889FBE008A9FBE00010578000100E00060
:100570000400350008003C000000E00020003200CC
:100580000500370060001000E080180002003B000A
:1005900001F02C001A0037000004BE006011B80002
:1005A0006B0920000982CF00020039000882CF00C9
:1005B0000441B000694252000E00320008003B00C6
:1005C00082817100610164008904D1000884D30034
:1005D0008B05E8000442E800F9FF3A000500370007
:1005E0000804440089844C008B05E9000442E900BA
:1005F000FBFF3A00D10007000AF0A70001F0A000BD
:100600004F05BE004F04BE000000060003F0A2002C
:10061000889FBE008A9FBE008C1F7800ED000700F7
:10062000F40033006450E1004F0032006420E10028
:100630005200320003826C0007003B000905D00025
:100640000306D000820F54000C065D000200390042
:100650000200320089017800030678008582550087
:1006600004003D000003FD008103FD008502EA0057
:100670008B854200840F720002003B006000100076
:10068000E08018006011B8000005EB007A28E10056
:100690000A00390006007800C75DDD00F707B200E8
:1006A000878075002D003700828171000A01780073
:1006B000610560008180D1000080D3008502E900DF
:1006C000F9FF3B00060440008784480002003B001D
:1006D00060041400E0841C000988A30007003200B5
:1006E0008A81710082817100610164008904D100F6
:1006F0000884D3008B05E800170037000978A300B1
:1007000013003A000B00E000130034008B05E900F1
:100710000804440089844C000A4474000978A3004A
:100720000D003A000B00E000070034008B05E900E3
:100730000804440089844C0001003A000B002000AA
:100740000978A300F7FF32000001EB000200370038
:10075000828171000A017800780007000CF0A70080
:1007600001F0A000AC0037006420E10002003A0074
:10077000838F6C00AC0033000801BE000200BE0095
:10078000A5003700889FBE008A9FBE008C1F78009E
:10079000900007009700330003866C006450E1006E
:1007A000240032006420E100270032006150E100A3
:1007B000220032006120E100210032008B854200DE
:1007C000EB07B1000134B800003AB8000804420059
:1007D00089844A00013AB8000030B800888040009F
:1007E00009014A00040033000000400081804800F5
:1007F000020149008B05E900C909DD008301700091
:100800000100320013002000C814DE004814DD008F
:100810004709DE001200B200C808DE00088470003C
:100820004600070001F0A1000CF0A70001F0A000B5
:10083000790037006120E1007B0032000801BE0032
:100840000200BE00F7FF37006150E100FCFF3A00F4
:10085000750037000001BE00760007000470A70095
:1008600003F0A10003F8A30013003A006509B100EA
:1008700010003200090035006928E100020035004F
:1008800001002800000005000000400081804800B1
:100890008502E900FCFF3A0000000600F88F4200E4
:1008A000050035008100D1000080D3008502E800FA
:1008B000FCFF3A00000006008000EB00000005008D
:1008C000839F68000100E00002003D00600010000E
:1008D000E08018000300E00002003D00600111000C
:1008E000E0811900050007004F00E00002003B0016
:1008F00060001000E0801800000006006022B800D0
:10090000060220000000D0008180D2000482D200C4
:100910008582D2000000A0000202520083825A00A9
:10092000030031000202420083824A000000A1005D
:100930000603E900F3FF3A000000060081002000F2
:10094000618055000B003D000B00200061FE2F0070
:100950000100E1001D00340082817100610164002A
:100960008904D1000884D3000000E800FAFF3A00AF
:10097000710020006100640003007000020060004C
:100980000900320061044400E0844C000988A5009D
:10099000050032008B05E8006808E10002003A001B
:1009A0008904D1000884D300F20F20000258E1002E
:1009B00005003D00C75DDD00F907B20089807500C4
:1009C00008007800000006000BF827008B00780074
:1009D000000005000004BE00160007000003BE0072
:1009E0000405BE000200BE0012000700844F75001F
:1009F000000006000200BE006450E1000500360061
:100A00006420E100020036000968A30001003A00FA
:100A10000800BE000160A0004F0678004F05BE0030
:100A20004F04BE0000000600F0FF2F00F1FF27007A
:100A3000F9FF3700C70ADE00F107B200F50FB20078
:100A400008003200E1CF4200020032000170A00035
:100A500024000500810F7000010032000408050029
:100A600044000500810F700002003A0014000500E8
:100A70008502E9000000400081C04800FCFF3B0007
:100A80000170A000240005000200FA00000F7800A9
:100A90008560A9008580A9001E007800674060007D
:100AA0006240600067406000674060004401DD0014
:100AB000910A200091407800F0C8B30000C06000A7
:100AC00002407000A9E0B700000720001E0060008F
:100AD0004400DE006740600067416000A10A20001A
:100AE0009140780080CFB30000C0600002407000E9
:100AF000AAE0B7009E007800688060004300DE0036
:100B000061406000614060004301DD005109200048
:100B10009140780070CFB30000C0600002407000C8
:100B200095E0B700000820001E0060004700DE00CE
:100B300061406000614060004401DD005109200017
:100B400091407800F0CEB30000C060000240700019
:100B500095E0B7000080FA00000006000200FA00ED
:100B6000000F780087C0A90087E0A9001E00780068
:100B70006740600067406000674060006741600058
:100B8000310B20009140780080CFB30000C060009E
:100B900002407000B3E0B700000720001E006000B4
:100BA0004400DE0067406000674060004401DD00F3
:100BB000310B200091407800F0C8B30000C0600005
:100BC00002407000B3E0B7009E00780068806000CB
:100BD0004300DE0061406000614060004601DD00CE
:100BE0007109200091407800F0CBB30000C0600094
:100BF0000240700097E0B700000820001E0060006F
:100C00004700DE0061406000C700DD0097C0BF0004
:100C10000074A1000140700097E0B7000080FA0066
:100C2000000006008001EB000200370061F079004F
:100C30008301E800828F5100FCFF3A0000000600AB
:100C4000000000002110000042200000633000007E
:100C500084400000A5500000C6600000E77000005E
:100C600008810000299100004AA100006BB100003A
:100C70008CC10000ADD10000CEE10000EFF100001A
:100C800031120000100200007332000052220000F6
:100C9000B552000094420000F7720000D6620000D6
:100CA00039930000188300007BB300005AA30000B2
:100CB000BDD300009CC30000FFF30000DEE3000092
:100CC00062240000433400002004000001140000EE
:100CD000E6640000C7740000A444000085540000CE
:100CE0006AA500004BB500002885000009950000AA
:100CF000EEE50000CFF50000ACC500008DD500008A
:100D00005336000072260000111600003006000065
:100D1000D7760000F666000095560000B446000045
:100D20005BB700007AA70000199700003887000021
:100D3000DFF70000FEE700009DD70000BCC7000001
:100D4000C4480000E558000086680000A77800004D
:100D5000400800006118000002280000233800004D
:100D6000CCC90000EDD900008EE90000AFF9000009
:100D700048890000699900000AA900002BB9000009
:100D8000F55A0000D44A0000B77A0000966A0000C5
:100D9000711A0000500A0000333A0000122A0000C5
:100DA000FDDB0000DCCB0000BFFB00009EEB000081
:100DB000799B0000588B00003BBB00001AAB000081
:100DC000A66C0000877C0000E44C0000C55C0000BD
:100DD000222C0000033C0000600C0000411C0000BD
:100DE000AEED00008FFD0000ECCD0000CDDD000079
:100DF0002AAD00000BBD0000688D0000499D000079
:100E0000977E0000B66E0000D55E0000F44E000034
:100E1000133E0000322E0000511E0000700E000034
:100E20009FFF0000BEEF0000DDDF0000FCCF0000F0
:100E30001BBF00003AAF0000599F0000788F0000F0
:100E400088910000A9810000CAB10000EBA1000058
:100E50000CD100002DC100004EF100006FE1000038
:100E600080100000A1000000C2300000E32000005C
:100E7000045000002540000046700000676000003C
:100E8000B983000098930000FBA30000DAB30000D0
:100E90003DC300001CD300007FE300005EF30000B0
:100EA000B102000090120000F3220000D2320000D4
:100EB00035420000145200007762000056720000B4
:100EC000EAB50000CBA50000A895000089850000C8
:100ED0006EF500004FE500002CD500000DC50000A8
:100EE000E2340000C3240000A014000081040000CC
:100EF00066740000476400002454000005440000AC
:100F0000DBA70000FAB7000099870000B89700003F
:100F10005FE700007EF700001DC700003CD700001F
:100F2000D3260000F236000091060000B016000043
:100F30005766000076760000154600003456000023
:100F40004CD900006DC900000EF900002FE9000027
:100F5000C8990000E98900008AB90000ABA9000027
:100F6000445800006548000006780000276800002B
:100F7000C0180000E108000082380000A32800002B
:100F80007DCB00005CDB00003FEB00001EFB00009F
:100F9000F98B0000D89B0000BBAB00009ABB00009F
:100FA000754A0000545A0000376A0000167A0000A3
:100FB000F10A0000D01A0000B32A0000923A0000A3
:100FC0002EFD00000FED00006CDD00004DCD000097
:100FD000AABD00008BAD0000E89D0000C98D000097
:100FE000267C0000076C0000645C0000454C00009B
:100FF000A23C0000832C0000E01C0000C10C00009B
:101000001FEF00003EFF00005DCF00007CDF00000E
:101010009BAF0000BABF0000D98F0000F89F00000E
:10102000176E0000367E0000554E0000745E000012
:10103000932E0000B23E0000D10E0000F01E000012
:101040004D6F0000646500006D340000383500000D
:10105000207600002E0000000000FA00C4E2A80084
:10106000CDC2A900C542A900C0E2A900C9C2A90019
:10107000C142A8000080FA00000006000200FA0049
:10108000000F78001E0078006103B8008600780029
:10109000E00320000009B8006030B90003027800C6
:1010A00000024200E003200000B8B9000002420044
:1010B0008401780002007800E00888000000EB005E
:1010C000C0088800011220009140780000C3B300DE
:1010D00000C0700020E1B70021E1A8008780A900CE
:1010E0009780A9000080FA00000006000400FA00C2
:1010F00010079800C142A900000000000000EB00AA
:10110000000F78000D0037001E0090000000E00086
:1011100002003D00C542A80001003700C542A900F9
:10112000CDC2A8001E0090000000400010079800EB
:10113000CDC2A900000000001E0FE800F000200052
:101140009E0F1000F0FF3400C542A900000000000F
:1011500000000000C142A8000000EB000080FA007F
:10116000000006000400FA00000F7800C142A80049
:10117000000F200001002000BAFC07001E007800CC
:10118000BEFF07000700370087C0BF007040600047
:101190000004E00003003200E0FF2F001007980079
:1011A00009003700C3C2BF00644060000004E000D3
:1011B000F5FF3A000017200001002000A9FC0700FD
:1011C0000000EB00100798001E0090000080FA005D
:1011D000000006000400FA000000EB00000F780099
:1011E000C142A8000000EB00100798000E00370075
:1011F0001E00780000004000000F7800CDC2A8005B
:1012000000000000C3C2BF00644060000004E000B2
:10121000010032001E0FE800CDC2A9001E009000A0
:101220000000E800100798001E009000EF0F50002B
:10123000EFFF3400C142A8001E0078000080FA00D1
:10124000000006000200FA00C142A90000000000F0
:10125000C542A9000000EB00000F78000500370030
:10126000CDC2A8000000000000000000CDC2A9000F
:101270001E0FE800400020009E0F1000F8FF340011
:101280000080FA00000006000200FA00C142A90036
:1012900000000000C542A9000000EB00000F78002C
:1012A00005003700CDC2A8000000000000000000CB
:1012B000CDC2A9001E0FE800300020009E0F1000D4
:1012C000F8FF34000080FA00000006000600FA0073
:1012D0001007980021079800C142A90000000000F3
:1012E000C542A9000000EB00000F78001500370090
:1012F0001E009000AE009000610160006000B80028
:101300000300200002007000838070000000E000F5
:1013100002003200C542A80001003700C542A90002
:10132000CDC2A8001E009000AE0090008180D100C8
:101330000080D3001007980021079800CDC2A900B3
:101340001E0FE800700120009E0F1000E8FF34001F
:101350000000EB000080FA00000006000400FA0024
:101360000000EB00000F7800C142A900C542A800B0
:10137000CDC2A8000000000000000000CDC2A900FE
:10138000C542A9000000EB001007980007003700D5
:10139000CDC2A8000000000000000000CDC2A900DE
:1013A0001E0090000000E800100798001E0090004A
:1013B000E20F5000F6FF3600000000000000EB00D6
:1013C0001007980007003700CDC2A80000000000F9
:1013D00000000000CDC2A9001E0090000000E8003F
:1013E000100798001E009000E70F5000F6FF36002F
:1013F000C142A800000000000000EB0010079800A8
:101400000F0037001E0078000000D100000F7800A8
:10141000CDC2A80000000000C3C2BF00644060004D
:101420000004E00002003200000028001E0F40000F
:10143000CDC2A9001E0090000000E800100798002F
:101440001E009000EF0F5000EEFF36001E007800E7
:101450000080FA00000006000000FA00FEFE07000F
:10146000C4E2A8000014200001002000FDFB0700DA
:10147000C4E2A90000202E0041002000F9FB070073
:1014800030D4240019FF07001085240017FF07003F
:1014900000D0270001002000F2FB0700C4E2A800F2
:1014A0000030250071002000EEFB070065FF0700FB
:1014B00000D0270001002000EAFB07000080FA00AE
:1014C000000006000000FA00E3FE0700C4E2A800E6
:1014D0000014200001002000E2FB0700C4E2A90084
:1014E0000014200001002000DEFB070030D424009F
:1014F000FEFE070000852400FCFE070000D0270048
:1015000001002000D7FB0700C4E2A800003025003E
:1015100071002000D3FB07000080FA0000000600E5
:101520000000FA00C4E2A90000E823000100200046
:10153000CCFB0700C4E2A800C0E2A80000E823003A
:1015400001002000C7FB07000080FA000000060031
:101550000600FA0010002000E4FE07001000200042
:1015600000FF0700000F78001E00E00003003D00B0
:101570001E007800200798000D00370015FF0700B7
:10158000100798009E00900000002100808F5000FE
:10159000030032000080EB002007980004003700B1
:1015A0000CFF0700100798000000EB0020079800D0
:1015B0002E0090000080FA00000006001600FA00DD
:1015C000600798007107980002579800130F980061
:1015D00030002100C5FE07006E009000FE00900064
:1015E00030079800410798000E509000304F980047
:1015F0000E489000204F98005E009000BBFE070050
:101600003E009000100798001E009000B7FE0700F3
:1016100010002000D3FE0700200798002E00900045
:101620000000E00003003D002E009000200F980015
:1016300023003700E7FE0700100798009E00900087
:1016400000102100808F5000030032000080EB006A
:10165000200F98001A003700DEFE070010079800E0
:101660000000EB00000F78000F003700D9FE0700E4
:1016700050079800AE4890001E089000014878007E
:101680001E0890000000E800100F9800BE4890006F
:101690001E089000014878001E0890000000E80035
:1016A000100F98001E0FE8000E5090000080FB0005
:1016B0009E0F5000EDFF3E000000EB00200F980051
:1016C0002E0890000080FA00000006001600FA00C4
:1016D0006007980071079800020F9800130F980098
:1016E0004000220081FE07006E009000FE00900086
:1016F00030079800410798000E0890007BFE070015
:101700004E00900079FE07003E00900077FE070033
:101710005000200093FE0700200798002E00900044
:101720000000E00003003D002E009000200F980014
:101730003E003700A7FE0700100798009E009000AB
:1017400000202100808F5000030032000080EB0059
:10175000200F9800350037009EFE07000E0890000D
:10176000610060000004E000070032000E089000F5
:101770006300B900630050000000D1000080E80061
:10178000000F9800040037000E0890006300B900B5
:101790000000D100000F98000000EB00000F78005F
:1017A0001D0037008BFE07003007980089FE0700F8
:1017B000500798002E489000004F98003E0090007F
:1017C000CE0090001E0990000089BE001E0FE800A8
:1017D0001E08900064004000100F98000E08900052
:1017E0009E0F10000C0031003E489000004F980002
:1017F00078FE0700300798003E009000CE00900071
:101800001E0990000089BE001E0FE8001E0890000F
:1018100064004000100F98000E0890009E0F10000A
:10182000E0FF39000000EB00200F98002E08900028
:101830000080FA00000006001000FA00400798003F
:1018400051079800424F98004000240027FE0700EF
:101850004E009000DE0090002007980031079800AD
:101860003E00900021FE07002E0090001FFE0700A2
:101870004E4890000080FB001CFE07005000200036
:1018800038FE0700100798001E0090000000E000DE
:1018900003003D001E009000700798000C00370008
:1018A0004CFE0700000F7800004021009E0F100042
:1018B000030032000080EB0070079800040037003E
:1018C00044FE0700000F78000000EB00700798004E
:1018D0007E0090000080FA00000006001400FA006C
:1018E0006007980071079800020F980030062500E5
:1018F000FEFD07006E009000FE009000300798008B
:10190000410798004E009000F8FD07003E0090004F
:10191000F6FD07005000200012FE07002007980087
:101920002E0090000000E00003003D002E0090001B
:10193000100F98002B00370000022000000F7800E5
:10194000190037000E0890001000BE003007980004
:10195000410798003E009000E4FD07000E4890000B
:10196000204F98000E08900064004000000F98007F
:101970000E0890001000BE00300798004107980044
:101980000E489000304F98005E009000D7FD070091
:101990003E009000D5FD07001E0FE9000E089000E4
:1019A00064004000000F98001E00E000E5FF3A00D0
:1019B00008FE0700100798009E00900000502100CC
:1019C000808F5000030032000080EB00100F980061
:1019D00004003700FFFD0700100798000000EB002F
:1019E000100F98001E0890000080FA00000006000A
:1019F0001800FA0070079800010F9800120F980065
:101A0000230F980040002D00B8FD07007E009000D5
:101A10008E08900020079800310798006E409000D3
:101A2000404F98001E089000AE08900040079800B4
:101A3000510798002E489000504F98006E0090007B
:101A4000AAFD07002E009000A8FD07004E009000A0
:101A5000A6FD070050002000C2FD070010079800F7
:101A60001E0090000000E00003003D001E009000FA
:101A7000300F98000C003700D6FD0700000F7800EB
:101A8000006021009E0F1000030032000080EB0078
:101A9000300F980004003700CEFD0700000F7800DB
:101AA0000000EB00300F98003E0890000080FA0024
:101AB000000006000E00FA00400798005107980049
:101AC00030002A0089FD07004E009000DE009000E3
:101AD00010079800210798002E00900083FD070052
:101AE0001E00900081FD0700500020009DFD0700B2
:101AF000000F78001E00E00003003D001E0078008B
:101B00006007980017003700B2FD07003007980003
:101B1000B0FD07007E409000FA4F500003003200F5
:101B20000080EB00600798000E0037006E409000C8
:101B3000F04F400003003A000000EB0060079800FF
:101B4000080037006E409000EF4F500003003A004D
:101B5000100020006007980002003700D0FF2F001F
:101B6000600798006E0090000080FA0000000600F8
:101B70000600FA0010002B005CFD0700100020009A
:101B800078FD0700000F78001E00E00003003D0014
:101B90001E007800200798000D0037008DFD07001B
:101BA000100798008BFD07003E409000FB4F50004F
:101BB000030032000080EB0020079800040037008B
:101BC0000040EB00304798001E009000200798006E
:101BD0002E0090000080FA00000006000400FA00C9
:101BE0000000EB00000F780008003700A6FD07009A
:101BF0001E007800C200DD0080B32000008040009D
:101C00001000BE00B1FD07001E0FE800E00020003C
:101C10009E0F1000F5FF34000000EB00000F78006D
:101C20000800370098FD07001E007800C200DD00A4
:101C300040B72000008040001000BE00A3FD070058
:101C40001E0FE800600020009E0F1000F5FF34001A
:101C5000C2FD0700100798008BFD07006000B80068
:101C60009AFD07001E0090000000E000EAFF35002A
:101C70000000EB000080FA00000006000200FA00FD
:101C80000000EB00000F7800080037007EFD070021
:101C90001E007800C200DD00C0B9200000804000B6
:101CA0001000BE0089FD07001E0FE8003000200074
:101CB0009E0F1000F5FF34000080FA0000000600BF
:101CC0001200FA0050079800610798007207980008
:101CD000030F9800E9FF07005E009000EE009000FF
:101CE00030079800410798000E4890000080FB00E4
:101CF000010020004409DD00CC01DE0083017100F9
:101D00004401DD00805C8000915C800002004000A6
:101D10008380480010079800210798005AFD0700AB
:101D20001E009000AE00900068FD070056FD070001
:101D3000A05C8000B15C800064FD07003E00900064
:101D4000010020004409DD00CC01DE0083017100A8
:101D50004401DD00C05C8000D15C800002004000D6
:101D600083804800100798002107980046FD07006F
:101D70001E009000AE00900054FD070042FD0700D9
:101D8000708427000102200050FD07003EFD07007F
:101D90006000B8004DFD07000000EB00000F780068
:101DA0004800370038FD070060B92000A10B200073
:101DB00046FD070034FD07006000B80043FD070042
:101DC00031FD07006000B80040FD070063FD07001B
:101DD000800078000E089000010878000E0890003E
:101DE0000080E800000F980027FD07006000B800A1
:101DF00036FD070024FD070060BB2D00A10B20006D
:101E000032FD070020FD07006000B8002FFD07002D
:101E10001DFD07006000B8002CFD07001AFD07003B
:101E2000603D2D00A10B200028FD070016FD0700D6
:101E30006000B80025FD070013FD07006000B80032
:101E400022FD070045FD0700800078000E08900085
:101E5000010878000E0890000080E800000F98004C
:101E600009FD07006000B80018FD070006FD070027
:101E700060BB2000A10B200014FD070002FD07003D
:101E80006000B80011FD0700FFFC07006000B8000B
:101E90000EFD070031FD0700800078000E0890005D
:101EA000010878000E0890000080E800000F9800FC
:101EB000F5FC07006000B80004FD07006FFF070095
:101EC0001E0FE8007E0090009E0F1000B5FF350049
:101ED00010C0B3000AEAB7000000EB000080FA006F
:101EE000000006000C00FA005007980063FF07008E
:101EF000C0BF2A0001002000300798004107980069
:101F00000E4890000080FB00010020004409DD0025
:101F1000CC01DE00830171004401DD0000002000DF
:101F20000102200002004000838048001007980052
:101F300021079800D4FC07001E009000AE0090001E
:101F4000E2FC0700D0FC07000019200081082000F7
:101F5000DEFC07003E009000010020004409DD0087
:101F6000CC01DE00830171004401DD00700020001F
:101F70000102200002004000838048001007980002
:101F800021079800C0FC07001E009000AE009000E2
:101F9000CEFC0700BCFC0700708427000102200073
:101FA000CAFC0700B8FC07006000B800C7FC0700C7
:101FB0000000EB00000F780015003700B2FC0700AE
:101FC00060BB2000A10B2000C0FC0700AEFC070096
:101FD0006000B800BDFC0700ABFC07006000B80063
:101FE000BAFC0700DDFC0700800078005E0090006E
:101FF000010878005E0090000080E800500798001B
:10200000A1FC07006000B800B0FC07001E0FE8004C
:10201000100020009E0F1000E8FF360017FF070099
:102020000000EB000080FA00000006001400FA0037
:102030006007980071079800020F98004006200082
:102040000EFC07000DFF07008FFC0700A001200019
:10205000410220009DFC07008BFC0700A0B023007C
:102060008108200099FC07006E009000FE0090009F
:1020700040079800510798002E4890000080FB0010
:10208000010020004409DD00CC01DE008301710065
:102090004401DD0000002000010220000200400099
:1020A00083804800200798003107980076FC0700DD
:1020B0002E009000BE00900084FC070072FC070018
:1020C000001920008108200080FC07004E009000CD
:1020D000010020004409DD00CC01DE008301710015
:1020E0004401DD00700020000102200002004000D9
:1020F00083804800200798003107980062FC0700A1
:102100002E009000BE00900070FC07000000EB0065
:10211000000F7800D00037000E0890001000780003
:102120000100200020079800310798000E08900059
:102130000080E800000F980053FC07002E0090007C
:10214000BE0090004409DD00CC01DE008301710077
:102150004401DD00000020000102200002004000D8
:102160008380480059FC07000E089000100078009A
:102170000100200020079800310798000E08900009
:102180000080E800000F98003FFC07002E00900040
:10219000BE0090004409DD00CC01DE008301710027
:1021A0004401DD0010002000010220000200400078
:1021B0008380480045FC07000E089000100078005E
:1021C0000100200020079800310798000E089000B9
:1021D0000080E800000F98002BFC07002E00900004
:1021E000BE0090004409DD00CC01DE0083017100D7
:1021F0004401DD0020002000010220000200400018
:102200008380480031FC07000E0890001000780021
:102210000100200020079800310798000E08900068
:102220000080E800000F980017FC07002E009000C7
:10223000BE0090004409DD00CC01DE008301710086
:102240004401DD00300020000102200002004000B7
:10225000838048001DFC07000E08900010007800E5
:102260000100200020079800310798000E08900018
:102270000080E800000F980003FC07002E0090008B
:10228000BE0090004409DD00CC01DE008301710036
:102290004401DD0040002000010220000200400057
:1022A0008380480009FC07000E08900010007800A9
:1022B0000100200020079800310798000E089000C8
:1022C0000080E800000F9800EFFB07002E00900050
:1022D000BE0090004409DD00CC01DE0083017100E6
:1022E0004401DD00500020000102200002004000F7
:1022F00083804800F5FB0700E3FB07000030200067
:10230000B10E2000F1FB0700DFFB07006000B80002
:10231000EEFB0700DCFB070060BB2000B10B2000D8
:10232000EAFB0700D8FB07006000B800E7FB0700E6
:10233000D5FB07006000B800E4FB0700D2FB0700F4
:1023400060BB2D00B10B2000E0FB0700CEFB0700B7
:102350006000B800DDFB0700CBFB07006000B800A1
:10236000DAFB0700C8FB070060BB2E00B10B2000A2
:10237000D6FB0700C4FB07006000B800D3FB0700D2
:10238000C1FB07006000B800D0FB0700BEFB0700E0
:1023900060BB2100B10B2000CCFB0700BAFB07009B
:1023A0006000B800C9FB0700B7FB07006000B80079
:1023B000C6FB0700B4FB070060BB2000B10B200088
:1023C000C2FB0700B0FB07006000B800BFFB0700BE
:1023D000ADFB07006000B800BCFB0700AAFB0700CC
:1023E00060BB2D00B10B2000B8FB0700A6FB070067
:1023F0006000B800B5FB0700A3FB07006000B80051
:10240000B2FB0700A0FB070060BB2E00B10B200051
:10241000AEFB07009CFB07006000B800ABFB0700A9
:1024200099FB07006000B800A8FB070096FB0700B7
:1024300060BB2100B10B2000A4FB070092FB07004A
:102440006000B800A1FB07008FFB07006000B80028
:102450009EFB07001E0FE800F00020009E0F1000FA
:102460002DFF340088FB070010762E00810A200023
:1024700096FB070084FB07006000B80093FB070091
:1024800081FB07006000B80090FB0700FBFD070020
:102490007DFB070020B02300010820008BFB070014
:1024A00079FB070020C223008108200087FB07007A
:1024B00075FB07006000B80084FB0700A7FB07005E
:1024C0001007980070FB07006000B8007FFB070052
:1024D0001E0090000000E00004003D0087C0BF0027
:1024E000704060000004E000E8FF320087C0BF00D9
:1024F000704060000004E000030032000080EB0048
:10250000100F980003003700DCFD07000000EB000F
:10251000100F98001E0890000080FA0000000600CE
:102520001000FA006007980040062000D3FA070068
:10253000D2FD0700C0BF2A0001002000400798001C
:10254000510798004E009000010020004409DD0072
:10255000CC01DE00830171004401DD007000200029
:1025600001022000020040008380480020079800FC
:102570003107980044FB07002E009000BE00900039
:1025800052FB070040FB0700A0032000410220008F
:102590004EFB07003CFB0700A0B023008108200091
:1025A0004AFB07002E4890000080FB00010020003D
:1025B0004409DD00CC01DE00830171004401DD002F
:1025C000000020000102200002004000838048003B
:1025D00020079800310798002BFB07002E00900081
:1025E000BE00900039FB070027FB07000019200000
:1025F0008108200035FB07000000EB00000F780089
:10260000450037006E0090001000780001002000A7
:1026100020079800310798006E0090000080E800C5
:102620006007980018FB07002E009000BE00900085
:102630004409DD00CC01DE00830171004401DD00AE
:10264000600020000102200002004000838048005A
:102650001EFB07000CFB07006000B8001BFB070017
:1026600009FB070060B82100B10B200017FB070031
:1026700005FB07006000B80014FB070002FB070021
:102680006000B80011FB0700FFFA070010762E006B
:10269000810A20000DFB0700FBFA07006000B8006C
:1026A0000AFB0700F8FA07006000B80007FB070004
:1026B00072FD0700F4FA070020B023000108200093
:1026C00002FB0700F0FA070020C223008108200067
:1026D000FEFA0700ECFA07006000B800FBFA0700FA
:1026E0001EFB070010079800E7FA07006000B8001B
:1026F000F6FA07001E0090000000E00004003D0014
:1027000087C0BF00704060000004E000E8FF3200B6
:102710005AFD07001E0FE800100020009E0F100059
:10272000B8FF360087C0BF00704060000004E000C2
:10273000030032000080EB007007980002003700B1
:102740000000EB00700798007E0090000080FA0007
:10275000000006000400FA00605D80001007980089
:102760001E009000E20F5000350032001E00900065
:10277000E20F500007003E001E0090000000E00045
:102780000B0032001E009000E10F500021003200CB
:102790009A0037001E009000E30F50003C0032000A
:1027A0001E009000E40F50004200320093003700FA
:1027B000A0CAB300C6EBB700C0CAB300C7EBB700EE
:1027C000E0CAB300C8EBB70000CBB300C9EBB70059
:1027D00020CBB300CAEBB70040CBB300CBEBB700C4
:1027E00060CBB300CCEBB70080CBB300CDEBB70030
:1027F000A0CBB300CEEBB700C0CBB300CFEBB7009C
:10280000E0CBB300D0EBB70010002000605D880083
:102810007A003700705D8000EA0F500003003C0032
:1028200020002000605D8800740037000000EB008D
:10283000705D880040002000605D88006F003700F8
:10284000F00F200030668800705D800000004000BE
:102850008000780000BB200000814000705D800097
:102860008000780060BC20008080400065CC2000A3
:1028700024C0B3008201780012C0B30070C7B30057
:10288000E406070030002000605D88005B00370030
:10289000306680000000E00058003A00705D800063
:1028A0000000E800705D880010002000605D880076
:1028B00052003700B0CBBF000080FB00C800DD0035
:1028C000B1CBBF000080FB0000804000505F88005B
:1028D000B2CBBF000080FB00C800DD00B3CBBF005F
:1028E0000080FB0000804000605F8800B4CBBF0028
:1028F0000080FB00C800DD00B5CBBF000080FB00FE
:1029000000804000705F8800B6CBBF000080FB00F5
:10291000C800DD00B7CBBF000080FB000080400096
:10292000805F8800B8CBBF000080FB00C800DD00DE
:10293000B9CBBF000080FB0000804000905F8800A2
:10294000BACBBF000080FB00C800DD00BBCBBF00DE
:102950000080FB0000804000A05F8800BCCBBF006F
:102960000080FB00C800DD00BDCBBF000080FB0085
:1029700000804000B05F8800BECBBF000080FB003D
:10298000C800DD00BFCBBF000080FB00008040001E
:10299000C05F8800C0CBBF000080FB00C800DD0026
:1029A000C1CBBF000080FB0000804000D05F8800EA
:1029B000C2CBBF000080FB00C800DD00C3CBBF005E
:1029C0000080FB0000804000E05F8800C4CBBF00B7
:1029D0000080FB00C800DD00C5CBBF000080FB000D
:1029E00000804000F05F88000000EB00605D880020
:1029F0000000EB00000F780002003700F00F20000D
:102A0000000F78001E0078000080FA000000060029
:102A10000400FA00905E8000100798001E029000EB
:102A2000E20F5200410032009E029000E28F5200FD
:102A300007003E001E0390000600E0000B0032007D
:102A40001E009000E10F50001C003200980037007B
:102A50001E029000E30F5200540032009E029000CC
:102A6000E48F52006D0032009100370040CFB30078
:102A7000DDEBB700E0C2B300DEEBB700F00F2000E3
:102A8000C05E880085BD20000042EB008001EB00A5
:102A900022C0B300D1BD200070C7B3005D0607009F
:102AA0000008800001002000A05E8800B15E880060
:102AB00010002000905E88007D003700C05E80001E
:102AC0000000E0007A003A00000880006101B800D0
:102AD000A05E8000B15E800000015100818159003C
:102AE0007013200001002000800F5100818F5900D9
:102AF0006F00360060CFB300DDEBB700F00F2000B1
:102B0000C05E880085BD200024C0B300A3BD2000A6
:102B100012C0B300D1BD200070C7B3003D0607004E
:102B200020002000905E880061003700C05E8000B9
:102B30000000E0005E003A0000C020008000E800D5
:102B4000DACBBF008048780001C02000DBCBBF009B
:102B50008048780040CFB300DDEBB70040CBB30036
:102B6000DEEBB7002000200040608800F00F20005E
:102B7000C05E880085BD20000042EB008001EB00B4
:102B800022C0B300D1BD200070C7B30021060700EA
:102B90000008800001002000A05E8800B15E88006F
:102BA00030002000905E880041003700C05E800049
:102BB0000000E0003E003A00000880006101B8001B
:102BC000A05E8000B15E800000015100818159004B
:102BD0003074200001002000800F5100818F5900C7
:102BE0003300360060CFB300DDEBB700F00F2000FC
:102BF000C05E880085BD200034C0B300A3BD2000A6
:102C000012C0B300D1BD200070C7B3000106070099
:102C100040002000905E880025003700C05E8000E4
:102C20000000E00022003A006000B8002060880048
:102C30003160880040C020008080E800DACBBF000F
:102C40008048780040C020008000E800DBCBBF0057
:102C50008048780041C02000DCCBBF00804878006D
:102C600022608000336080004060800068001000B7
:102C70000202BE00000378000603E90003003300EF
:102C80008582D1000482D300FBFF37000400BE0020
:102C900020608800316088000A0007000000EB0017
:102CA000905E88000000EB00000F78000200370003
:102CB000F40F2000040F78001E0078000080FA0056
:102CC000000006007000FA00889FBE0002608000CD
:102CD00013608000A05F800001002000000451000C
:102CE00081845900905F80006103B80088007800FB
:102CF00006007800000AB80007C0B9000501780096
:102D00000001410009B0B9000001410082027800D1
:102D1000241F9800351F98002E189000BE189000B0
:102D2000E00F5000E08F580008003D00F0FF270042
:102D3000010020002E199000BE19900002014000F1
:102D400083814800221F9800331F98002E1A90009C
:102D5000BE1A9000412BDD004F20DE000000730002
:102D6000CFA8DE002017980031179800E05F8000A0
:102D7000CF80DE004B0ADD00C502DE008502720056
:102D80004B02DD00F05F80006101B9002E10900061
:102D9000BE10900002014000838148000400BE0084
:102DA000C7F6070000179800111798002E11900021
:102DB000BE1190000E1090009E1090000200400086
:102DC00083804800200F9800310F98002E08900053
:102DD000BE08900068004000E0804800401F980056
:102DE000511F98004E189000DE189000E00F500020
:102DF000E08F580006003D004E199000DE1990004B
:102E00006F014100E0814900421F9800531F980064
:102E10004E1A9000DE1A90004C2BDD004420DE009C
:102E200000007300C4A8DE00008FBE002E099000D1
:102E3000BE09900000062F00F1FF2F0002004000A5
:102E400083804800000F9800110F9800C05F800039
:102E50006101B900021F9800131F98008E089000AE
:102E60000E089000000AB8008E0890001E0890001E
:102E70000088B90005017800000141008E0890002B
:102E80001E0890000088B90000014100820278000D
:102E9000641F9800751F98006E1A9000FE1A90002B
:102EA000E00F5200E08F5A0008003D00F0FF2000C4
:102EB000010020006E199000FE19900002014000F0
:102EC00083814800621F9800731F98006E1A90005B
:102ED000FE1A9000442BDD004C20DE000000730041
:102EE000CCA8DE000003BE008E189000060078001B
:102EF000000AB8000E1990000790B900050178008B
:102F0000000141009E19900003B0B900000141008A
:102F10008202780004279800152798000E2290005E
:102F20009E229000E00F5200E08F5A0008003D0002
:102F3000F07F2000010020000E2190009E219000D3
:102F4000020140008381480002279800132798005F
:102F50000E2290009E229000452BDD004B20DE00CB
:102F600000007300CBA8DE002017980031179800EE
:102F7000605F80006103B900860078000E08900051
:102F8000000AB8001E08900000B0B90005017800E2
:102F9000000141000E0890000780B90000014100C7
:102FA0008202780024279800352798002E20900070
:102FB000BE209000E00F5000E08F580008003D0058
:102FC000F07F2000010020002E219000BE21900003
:102FD000020140008381480022279800332798008F
:102FE0002E229000BE229000452BDD004B20DE00FB
:102FF00000007300CBA8DE0000179800111798009E
:103000002E119000BE1190000E1090009E109000A6
:103010000200400083804800600F9800710F980004
:10302000505F80004200DD006101B9006E08900031
:10303000FE0890000201400083814800406080004B
:103040000202BE00000378000603E900030033001B
:103050000402420085824A00FBFF37000400BE00E4
:1030600062004000E0804800402798005127980007
:103070004E209000DE209000E00F5000E08F5800BE
:1030800006003D004E219000DE21900063014100CA
:10309000E081490042279800532798004E22900073
:1030A000DE2290004E2BDD004220DE000000730087
:1030B000C2A8DE00400F9800510F9800705F80009A
:1030C0006103B900860078000E089000000AB8007D
:1030D0001E08900000B0B900050178000001410011
:1030E0000E0890000780B9000001410082027800BC
:1030F00064279800752798006E209000FE209000AD
:10310000E00F5000E08F580008003D00F0FF210064
:10311000010020006E219000FE219000020140007D
:103120008381480062279800732798006E229000E0
:10313000FE229000432BDD004D20DE0000007300D6
:10314000CDA8DE002017980031179800B05F8000EE
:103150006101B90062179800731798008E089000FB
:103160000E089000000AB8008E0890001E0890001B
:103170000088B90005017800000141008E08900028
:103180001E0890000088B90000014100820278000A
:10319000042F9800152F98000E2A90009E2A900068
:1031A000E00F5200E08F5A0008003D00F0FF2000C1
:1031B000010020000E2990009E299000020140008D
:1031C00083814800022F9800132F98000E2A900048
:1031D0009E2A9000442BDD004C20DE00000073008E
:1031E000CCA8DE000003BE00EE10900006007800C0
:1031F000000AB8006E1190000790B9000501780030
:1032000000014100FE11900003B0B900000141002F
:1032100082027800242F9800352F98002E2A9000E3
:10322000BE2A9000E00F5200E08F5A0008003D00D7
:10323000F0FF2F00010020002E299000BE299000F1
:103240000201400083814800222F9800332F98000C
:103250002E2A9000BE2A900040A8DE00CF80DE001B
:1032600000179800111798002E119000BE119000C1
:103270000E1090009E1090000200400083804800D5
:1032800062004000E0804800402F9800512F9800D5
:103290004E289000DE289000E00F5000E08F58008C
:1032A00006003D004E299000DE2990006301410098
:1032B000E0814900422F9800532F98004E2A900039
:1032C000DE2A90004E2BDD004220DE00000073005D
:1032D000C2A8DE00600F9800710F9800805F800028
:1032E0006104B8006E099000FE09900000002800FB
:1032F0000100200002004000838048000003BE005F
:103300008800780006007800000AB80007C0B900FD
:10331000050178000001410009B0B9000001410039
:10332000820278004129DD004F20DE00000071009C
:10333000CF28DE00600798007107980020608000A9
:10334000316080000001BE004E089000DE08900051
:103350000004510081845900406080000001780021
:1033600000352C0001002000820178008301E90073
:10337000030033008180D1000080D300FBFF3700C1
:103380000003BE008800780006007800000AB8003C
:1033900007C0B900050178000001410009B0B9007B
:1033A0000001410082027800440798005507980008
:1033B0004E009000DE009000E00F5000E08F5800BB
:1033C0000A0035004E009000DE0090000000400032
:1033D000818048006E019000FE01900047F50700D3
:1033E0002007980031079800090037006E0190000F
:1033F000FE0190004E009000DE0090003FF50700B7
:1034000000004000818048002007980031079800A4
:103410002E009000BE009000602F9800712F980041
:103420006E2A9000FE2A9000E00F5200E08F5A00B2
:1034300006003D006E289000FE289000F00FB000BE
:103440000180B000602F9800712F98006E299000C5
:10345000FE299000481ADD004810DE0000007200CE
:10346000C898DE0040179800511798002E00900071
:10347000BE00900000379800113798000E30900081
:103480009E309000E00F5000E08F580006003D0095
:103490000E3190009E319000F20FB0000380B0001A
:1034A00002379800133798000E3290009E32900039
:1034B000482BDD004820DE0000007300C8A8DE00B5
:1034C0000003BE00CE10900006007800000AB8008D
:1034D0004E1190000790B9000501780000014100ED
:1034E000DE11900003B0B9000001410082027800B3
:1034F0002417980035179800AE109000E0BD20000A
:103500000009B8002E1090006000B9000302780096
:1035100000024200BE109000E0BD20000088B9000B
:103520000002420084017800223798003337980067
:103530002E329000BE329000E00F5200E08F5A0011
:1035400008003D00F0FF2F00010020002E31900008
:10355000BE3190000201400083814800223798006C
:10356000333798002E329000BE32900040A8DE0023
:10357000CF80DE002017980031179800AE00900031
:1035800030342E00000AB800AE0090000080EB003E
:103590000088B9000501780000014100BE009000DC
:1035A00030342E000088B90000014100820278000A
:1035B00044379800553798004E309000DE30900028
:1035C000E00F5000E08F580008003D00F0FF2F0092
:1035D000010020004E319000DE31900002014000D9
:1035E0008381480042379800533798004E3290004C
:1035F000DE32900040A8DE00CF80DE000017980089
:10360000111798002E119000BE1190000E1090001E
:103610009E1090000201400083814800F0EC2000E1
:1036200001002000020040008380480060379800BD
:10363000713798006E309000FE309000E00F50001F
:10364000E08F580006003D006E319000FE31900082
:103650006F014100E081490062379800733798009C
:103660006E329000FE3290004C2BDD004420DE00D4
:1036700000007300C4A8DE000001BE002E00900010
:10368000BE009000000041008180490020079800A2
:10369000310798001E007800306288002E009000EC
:1036A000BE0090006062880071628800125F800036
:1036B000235F80002E009000BE00900002004000BA
:1036C00083804800105F8800215F8800005F8000D1
:1036D0000000E800005F8800005F8000FD0F5000E0
:1036E0000C0034000000EB00005F8800105F8000D9
:1036F000215F8000E20120000300200070F4070039
:1037000040628800516288006000B800105F880045
:10371000215F88004F04BE000080FA000000060010
:103720000200FA00505180000000E00003003A005F
:103730000D000700000F780008003700505180008E
:10374000E10F500003003A00A3010700000F7800CA
:10375000020037000000EB00000F78001E00780028
:103760000080FA00000006000C00FA007151800091
:10377000F0D02100808F5000030032000000EB00E9
:10378000500798009101370032CABF00E14F400056
:1037900015003A00C9C2A9000000EB00200C880007
:1037A000116680002066800000804000100C8800B8
:1037B00010002000200C88008440A9009440A8003C
:1037C000105180000080E900105188000040EB009B
:1037D000C0ECB70010002000806088008000EB0083
:1037E000510798007901370031A3200091407800FB
:1037F00030CABF0080CF5000030032000000EB0051
:10380000500798007101370034CABF00E14F5000E3
:1038100016003A00105180000080E9001051880025
:10382000100020008060880035CABF00E54F5000BE
:103830000B003A00C9C2A9000000EB00200C880070
:10384000116680002066800000804000100C880017
:1038500010002000200C88008440A9009440A8009B
:103860008000EB005107980058013700200020002D
:103870005051880035CABF0031EAB7000040EB0064
:1038800035EAB70031CABF000080FB00400798004E
:103890004E009000F50F50007F003200CE009000E7
:1038A000F58F500021003C004E009000E40F5000C6
:1038B0005E003200CE009000E48F50000A003C0011
:1038C0004E009000E20F50004B003200CE009000FE
:1038D000E28F500050003C004E0090000000E000DD
:1038E000410032002F013700CE009000F18F5000D0
:1038F0005C0032004E009000F10F500004003C00CC
:10390000CE009000E58F50003F00320025013700C7
:103910004E009000F20F500056003200CE00900092
:10392000F48F5000670032001E013700400E200067
:10393000CE009000808F5000B1003200400E200079
:10394000CE009000808F500016003C00100E20002A
:10395000CE009000808F50005D003200100E2000DD
:10396000CE009000808F500005003C000008200031
:10397000CE009000808F50003500320009013700E2
:10398000200E2000CE009000808F500055003200A5
:10399000300E2000CE009000808F50009300320047
:1039A00000013700600E2000CE009000808F500094
:1039B000AF003200600E2000CE009000808F5000DB
:1039C00094003500700E2000CE009000808F5000D3
:1039D000CE003200800E2000CE009000808F50007C
:1039E000CF003200EF003700CE0A07007000200041
:1039F00010518800EF003700A301070020012000CC
:103A000010518800EB003700F2010700A0002000F1
:103A100010518800E7003700C0CCBF0035EAB7007E
:103A20004000200010518800E200370020002000F4
:103A300050518800205180001051880020A32000A0
:103A400011B320000500090031587800D900370073
:103A5000400020001051880010002000D060880035
:103A6000D4003700105180000080E9001051880018
:103A7000D000370020CA200061A320000500090003
:103A8000B05878006100B1006000B100A0002000D3
:103A900010518800C700370060C0B30036EAB70095
:103AA00000C2B30037EAB70020C0B30038EAB7005D
:103AB00020C0B30039EAB700800020001051880010
:103AC000BC003700EB01070010518800B900370037
:103AD000400020001051880010002000D0608800B5
:103AE000B400370036CABF0007E8B70037CABF00C6
:103AF00006E8B70038CABF0005E8B70039CABF00FA
:103B000004E8B7000000EB0020079800A0A3200005
:103B100010079800105180006A0050001051880072
:103B20000000EB003007980010003700AE00900056
:103B30001E0090001001780081804000A0902000BD
:103B400000804000020878002E0090000000E8008D
:103B5000200798001E0090000080E80010079800E1
:103B60003E0090000080E80030079800115180006E
:103B70003E009000808F5000ECFF3C00BE009000A3
:103B8000F00B2000808F500011003C000C0037002B
:103B90002E00900080004000A09020008080400017
:103BA0000080EB00800878002E0090000000E80004
:103BB000200798003E0090000080E8003007980041
:103BC000BE009000F00B2000808F5000F0FF34000A
:103BD00010002000D06088000DCABF0036EAB70090
:103BE0005000200010518800720037004000200073
:103BF0001051880010002000D06088006D00370050
:103C0000400020001051880010002000D060880083
:103C10006800370036CABF0007E8B70037CABF00E0
:103C200006E8B70038CABF0005E8B70039CABF00C8
:103C300004E8B7003ACABF0009E8B7003BCABF00B2
:103C400008E8B7004140800090022000808F5000BB
:103C50000200360090022000404088004000200012
:103C60001051880010002000D060880051003700FB
:103C70000ACABF00E14F500021003A00A080200096
:103C8000000F78004000200020079800404080008E
:103C90006600B900404088000000EB003007980043
:103CA0000E003700AE0090001E0078001041780032
:103CB000F280400000A2200000804000024878000E
:103CC0002E0090000000E800200798001E0FE8007A
:103CD0003E0090000000E80030079800BE00900011
:103CE00040408000808F5000EEFF39000040EB0024
:103CF0000AEAB7002E009000105188002D0037000E
:103D000040002000105188002A00370040002000A9
:103D10001051880010002000D06088002500370076
:103D20001051800064005000105188000000EB002A
:103D30003007980010003700AE0090001E00900081
:103D40001001780081804000A09020000080400099
:103D5000020878002E0090000000E800200798007C
:103D60001E0090000080E800100798003E009000C0
:103D70000080E80030079800115180003E0090005C
:103D8000808F5000ECFF3C0010002000D0608800C5
:103D90000040EB0035EAB7004000200010518800D9
:103DA00004003700400020001051880000C0EB00E4
:103DB00035EAB700C0CFB300C0ECB7001000200058
:103DC000C06088008000EB00510798005E00900002
:103DD0000080FA00000006000000FA007151800027
:103DE000F0D02100808F50000D0032002000200014
:103DF000505188000040EB0032EAB70030CABF00E3
:103E000033EAB70020C0B30034EAB700D0CFB30024
:103E100035EAB70040002000105188000300370049
:103E2000105180000080E90010518800100020002F
:103E3000806088000000EB000080FA0000000600AF
:103E40000400FA00C06080000000E00003003A00B7
:103E5000806080000000E00003003200F00F2000CE
:103E6000100798006400370031CABF000080FB00D3
:103E7000000F7800300E20009E007800808F5000E8
:103E80003C003200300E20009E007800808F5000F1
:103E90000D003C00100E20009E007800808F500026
:103EA00023003200100E20009E007800808F50000A
:103EB00024003C00000820009E007800808F500005
:103EC000120032004A003700500E20009E00780099
:103ED000808F50002F003200500E20009E0078008E
:103EE000808F500027003500700E20009E00780063
:103EF000808F500036003200800E20009E00780037
:103F0000808F50003600320039003700C4E2A8002C
:103F1000C0E2A900C4E2A90000D0270001002000EF
:103F200050F10700C4E2A800C0E2A800300037004A
:103F300010C0B3000BEAB70047F5070027F70700EA
:103F40002B0037000BCABF00E14F500006003A00BB
:103F50002040800031408000A290200033F807000C
:103F60000DEAB70022003700E0CFB3000DEAB7003A
:103F70001F0037000040EB000BEAB70068F50700B0
:103F80001B00370010C0B3000CEAB70032F5070081
:103F9000170037000CCABF00E14F50000A003A007A
:103FA0000040EB000AEAB7004040800000017800C2
:103FB0002040800031408000A380200040F70700AF
:103FC0000EEAB7000A0037000000000008003700C2
:103FD0000040EB000CEAB70051F507000400370081
:103FE000A09020004EF907000DEAB7004CF507003D
:103FF0000000EB00100798001E0090000080FA00FF
:10400000000006000400FA0000408000100798003D
:104010001E0090000000E000040032001E0090002E
:10402000E10F500006003200120037000008800047
:104030001040880010002000004088000D0037006C
:10404000010880001040800080805000B0072000F0
:10405000808F50000700360010002000806088002C
:104060000000EB00004088000000EB00000F78002B
:1040700002003700F00F2000000F78001E007800CB
:104080000080FA00000006000200FA0060A3200091
:10409000000F7800C0C220000000E80090407800C7
:1040A0001E007800014878001E0FE800C0C2200002
:1040B000904078001E007800014878001E0FE8004C
:1040C00040C320000000E800904078001E00780007
:1040D000014878001E0FE80040C32000904078009F
:1040E0001E007800014878001E0FE80060C3200021
:1040F0000000E800904078001E0078000148780039
:104100001E0FE80060C32000904078001E00780079
:10411000014878001E0FE80080C320000000E8007E
:10412000904078001E007800014878001E0FE800DB
:1041300080C32000904078001E007800014878007D
:104140001E0FE80000C420000000E8009040780046
:104150001E007800014878001E0FE80000C420000F
:10416000904078001E007800014878001E0FE8009B
:1041700020C420000000E800904078001E00780075
:10418000014878001E0FE80020C42000904078000D
:104190001E007800014878001E0FE80040C420008F
:1041A0000000E800904078001E0078000148780088
:1041B0001E0FE80040C42000904078001E007800E8
:1041C000014878001E0FE8000000EB000080FA00B4
:1041D000000006000200FA0060A32000000F780033
:1041E00060C420000000E800904078001E007800C5
:1041F000014878001E0FE80060C42000904078005D
:104200001E007800014878001E0FE80080C42000DE
:1042100063004000904078001E007800014878005C
:104220001E0FE80080C420000080E8009040780065
:104230001E007800014878001E0FE80080C42000AE
:104240000000E800904078001E00780001487800E7
:104250001E0FE80080C42000904078001E00780007
:10426000014878001E0FE8000000EB000080FA0013
:10427000000006000400FA00B000200010079800BB
:104280001E01900060A320000182280065F2070053
:104290001E009000640040001007980020C0B3008A
:1042A000004F78009E0090001E80FB00A2002000BE
:1042B000811F7800110009000280D80001017800F8
:1042C000CF0078000043B00000417800F280400049
:1042D00000A2200000804000024878001E009000EC
:1042E0000000E800100798009E0090001E80FB0070
:1042F000A2002000811F7800110009000280D80070
:104300000001780001007800CF0078000043B00081
:1043100000417800F280400000A2200000804000B0
:10432000024878001E0090000000E8001007980086
:104330001E009000F200400000A22000808040009B
:10434000E0C2B300804878001E0090000000E80042
:104350001007980020C0B300004F78009E00900026
:104360001E80FB00A2002000811F780011000900C0
:104370000280D80001017800CF0078000043B0002F
:1043800000417800F280400000A220000080400040
:10439000024878001E0090000000E8001007980016
:1043A0009E0090001E80FB00A2002000811F78006C
:1043B000110009000280D800000178000100780097
:1043C000CF0078000043B00000417800F280400048
:1043D00000A2200000804000024878001E009000EB
:1043E0000000E800100798001E0090000080FA000E
:1043F000000006000000FA000000EB00301088000A
:10440000300220002010880007E2A8000080FA0097
:10441000000006000E00FA00004F78001107980017
:104420004247980033079800044F980055079800BA
:10443000A0628000E20F50003F003200C0628000A6
:104440006C00B900E600400040C52000008040003C
:104450001E487800C06280006C00B900E80040008F
:1044600040C52000008040009E00900001087800B8
:10447000C06280006C00B900EA00400040C5200026
:1044800000804000CE40900001487800C06280006B
:104490006C00B900EC00400040C5200000804000E6
:1044A000BE00900001087800C06280006C00B90076
:1044B000EE00400040C52000008040008E48900083
:1044C00001487800C06280006C00B900F000400034
:1044D00040C5200000804000DE0090000108780008
:1044E000DE009000F00F200080087800C06280009D
:1044F0000000E800C0628800C0628000E30F500046
:10450000020034000000EB00C062880010002000B0
:10451000A0628800C1628000B0628000808F50007D
:1045200002003A0020002000A06288000000EB009A
:104530006007980002003700210020006107980002
:104540006E0090000080FA00000006000000FA00F3
:10455000B06280000000E800B0628800B0628000B5
:10456000E30F5000020034000000EB00B06288004E
:1045700010002000A0628800C1628000B06280004C
:10458000808F500002003A000000EB00A06288001B
:104590000080FA00000006000200FA0006C2BF0018
:1045A000614060000004E00014003A0006C2BF0051
:1045B000624060000004E00010003A0006C2BF0044
:1045C000644060000004E0000C003A0006C2BF0036
:1045D000684060000004E00008003A0006C2BF0026
:1045E000704060000004E00004003A0009C2BF000F
:1045F0000044B2000004E000030032000000EB00C1
:10460000000F78000200370010002000000F780033
:104610001E0078000080FA00000006000200FA0088
:104620000602A80009C2BF00644060000004E00068
:104630000300320020002000000F78000200370045
:104640000000EB00000F78001E0078000080FA00E8
:10465000000006000200FA000622A80009C2BF00FE
:10466000644060000004E00005003A0008C2BF009A
:1046700001C8B300014060000004E0000300320004
:1046800020002000000F7800020037000000EB003F
:10469000000F78001E0078000080FA00000006007D
:1046A0000400FA00004F78001E80FB001010880004
:1046B00009C2BF00644060000004E00005003A0049
:1046C00008C2BF0001C8B300014060000004E00060
:1046D000030032002000200010079800020037007D
:1046E0000000EB00100798001E0090000080FA0008
:1046F000000006000200FA00000F78001000200001
:104700009E0F100002003A0006A2A9000100370027
:1047100006A2A8000682A8000080FA000000060099
:104720000800FA00906280006101B800220798003A
:1047300033079800D0002000010020002E019000D7
:10474000BE019000800F5100818F59007A013E0018
:104750002E009000BE009000006001000D003700A8
:104760003A00370048003700620037007200370017
:10477000AB003700BB003700D1003700DF00370047
:10478000FB0037000C0137002701370051013700CB
:1047900054013700B06280006C00B900EA004000AC
:1047A00040C5200000804000104078000004E00078
:1047B00014003A00B06280006C00B900EE004000C6
:1047C00040C5200000804000104078000004E00058
:1047D0000C003A00B06280006C00B900F0004000AC
:1047E00040C5200000804000900078000000EB00F1
:1047F0008008780055FF07008000EB001107980043
:104800004F01370000088000206188000000EB00A5
:1048100080628800B06280006C00B900EA0040004D
:1048200040C5200000804000104078000004E000F7
:1048300003003A0070002000906288003E013700BB
:1048400010002000906288003B01370052FF0700F3
:104850000000E0003801320070FF0700000F780010
:104860001E00E00003003A00200020009062880053
:10487000310137001E00780080628800C0002000EF
:10488000906288002C01370008C2BF0068406000B9
:104890000004E0002801320008C2BF00614060004F
:1048A0000004E00024013A00B06280006C00B9000E
:1048B000E600400040C52000008040001040780025
:1048C0000040400076FF0700000F78001E00E00067
:1048D00003003A0030002000906288001601370083
:1048E0001E00780080628800C0002000906288006E
:1048F0001101370009C2BF000044B2000004E0000B
:104900000D013A0009C2BF0001C8B30001406000B8
:104910000004E00003003A0040002000906288009C
:10492000050137001000200080628800C0002000D0
:104930009062880000013700B06280006C00B9000E
:10494000EA00400040C52000008040001040780090
:104950000004E00003003A0060002000906288003C
:10496000F500370008C2BF00614060000004E000AD
:10497000F1003A00B06280006C00B900E80040002D
:1049800040C52000008040001000780010407800F2
:1049900043FF0700000F7800B26280006C10B9007E
:1049A000E800400040C52000008040001000780072
:1049B0008001E8006C10B900E800400040C520000C
:1049C0000080400003087800B26280006C10B900DB
:1049D000EA00400040C52000008040001040780000
:1049E0008041E9006C10B900EA00400040C5200099
:1049F00000804000034878001E00E00003003A00F9
:104A00005000200090628800CB0037001E00780024
:104A100080628800C000200090628800C6003700D5
:104A200009C2BF000044B2000004E000C2003A0026
:104A300009C2BF0001C8B300014060000004E000EB
:104A400003003A004000200090628800BA0037005E
:104A50001000200080628800C00020009062880062
:104A6000B5003700B06280006C00B900EE00400075
:104A700040C5200000804000104078000004E000A5
:104A800003003A00C000200090628800AA003700AE
:104A9000F0FE0700000F78001E00E00003003A005F
:104AA0008000200090628800A30037001E0078007C
:104AB00080628800C0002000906288009E0037005D
:104AC000B5FE07000000E0009B003200D3FE0700A7
:104AD000000F78001E00E00003003A008000200074
:104AE00090628800940037001E0078008062880081
:104AF000C0002000906288008F00370008C2BF000D
:104B0000684060000004E0008B00320008C2BF0073
:104B1000614060000004E00087003A00B06280005D
:104B20006C00B900E600400040C520000080400055
:104B3000104078000080FB00000040000004A0004E
:104B4000D7FE0700000F78001E00E00003003A00C7
:104B50009000200090628800770037001E007800E7
:104B600080628800C00020009062880072003700D8
:104B700009C2BF000044B2000004E0006E003A0029
:104B800009C2BF0001C8B300014060000004E0009A
:104B900004003A000662A800A0002000906288008D
:104BA000650037001000200080628800C0002000EF
:104BB000906288006000370008C2BF006240600059
:104BC0000004E0005C003200B06280006C00B900BC
:104BD000EC00400040C520000080400090007800BC
:104BE0000010800080487800B06280006C00B9003E
:104BF000EE00400040C520000080400010407800DA
:104C0000E14F500003003A000000EB00B9FE07003E
:104C10000200370010002000B6FE0700B0002000A0
:104C2000906288004400370006C2BF0070406000F8
:104C30000004E00040003A00B26280006C10B9004D
:104C4000EC00400040C520000080400010007800CB
:104C50008001E8006C10B900EC00400040C5200065
:104C60000080400003087800B26280006C10B90038
:104C7000EE00400040C52000008040001040780059
:104C80008041E9006C10B900EE00400040C52000F2
:104C90000080400003487800B06280006C00B900DA
:104CA000EE00400040C52000008040001040780029
:104CB0000004E00003003A00C00020009062880079
:104CC0001D0037000662A800A00020009062880046
:104CD000190037000642A800D0002000906288002A
:104CE0001500370006C2BF00644060000004E00009
:104CF00011003A00B06280006C00B900F000400082
:104D000040C5200000804000900078008062800054
:104D1000800878000DFE07000000EB00906088001E
:104D20000000EB0090628800806280000080FB0041
:104D30001007980002003700F20F200012079800B9
:104D40001E0090000080FA00000006000200FA0039
:104D5000004F78001E80FB00201188000080FA00C0
:104D6000000006000200FA00004F78001E80FB00E1
:104D7000A01188000080FA00000006000000FA0080
:104D8000CCE2A9008000280000118800004020002B
:104D900010118800200220004011880080002800A7
:104DA000801188000040200090118800200220001F
:104DB000C0118800E000200033EF0700D000200081
:104DC00066EF07000080FA00000006000000FA000D
:104DD00031E2A8000080FA00000006000000FA009E
:104DE00031E2A9000080FA00000006000400FA0089
:104DF00050518000100798001E009000E10F5000F5
:104E00000D0032001E009000E20F5000040032003E
:104E10001E0090000000E00004003200090037008E
:104E20000D000700000F780008003700AE000700F3
:104E3000000F78000500370007000700000F78001A
:104E4000020037000000EB00000F78001E00780021
:104E50000080FA00000006000400FA00B050800054
:104E6000100798009E009000E28F5000580032001A
:104E70001E009000E20F500007003E009E009000D0
:104E80000100E0000B0032001E009000E10F500016
:104E9000460032008F0037009E009000E38F5000E4
:104EA000790032001E009000E40F50007F003200B5
:104EB00088003700CCE2A800105180002051880003
:104EC00011B3200020A3200005000900B05878008D
:104ED00020A32000A05088000080EB0080508800B4
:104EE0000000EB00905088001300370080508000D5
:104EF000C801DD00805080004801DE00A150800024
:104F00009050800000804000104078000080FB003E
:104F1000000069008000400000622800008040001E
:104F20001000780000806900805088009050800058
:104F30000000E800905088001151800090508000DF
:104F4000808F5000E9FF3C00805080000080EA0024
:104F50008050880092508000020078008000780025
:104F6000A050800080804000805080004800DE001B
:104F7000804878000200E80090508800925080003D
:104F80000200780080007800A050800080804000FF
:104F900080508000804878000200E800905088002F
:104FA00010002000B05088004A00370023C2BF0024
:104FB000614060000004E00046003200E0C7B3003A
:104FC00062FF070020002000B05088004100370039
:104FD00023C2BF00614060000004E0003D003200D9
:104FE000905080000000E9009050880090508000B0
:104FF000E10F400021003200A05080009040780076
:10500000E0C7B30080CF50000A003200A0508000FB
:1050100090407800D0C7B30080CF50000500320028
:10502000A05080009040780030C2B30080CF500084
:105030000B003A00D0C7B30044FF0700A050800027
:105040009040780000C2B30000C068003FFF070036
:10505000A05080000000E800A05088001D0037002C
:10506000A0508000904078000000E800A050880028
:105070000140780035FF070016003700300020009F
:10508000B05088001300370023C2BF0061406000A9
:105090000004E0000F003200E0C7B3002BFF070060
:1050A00040002000B05088000A00370023C2BF0033
:1050B000614060000004E00006003200CCE2A9007C
:1050C0000000EB00B05088008000EB00010F78007A
:1050D00002003700F00F2000000F78001E0078005B
:1050E0000080FA00000006000400FA00F050800082
:1050F000100798001E009000E20F5000520032008E
:105100001E009000E20F500007003E001E009000BD
:105110000000E0000B0032001E009000E10F500084
:1051200040003200890037001E009000E30F50005D
:105130006E0032001E009000E40F50007400320038
:10514000820037000DFF070020A32000E0508800F8
:105150000080EB00C05088000000EB00D0508800B9
:1051600013003700C0508000C801DD00C05080002F
:105170004801DE00E1508000D050800000804000F7
:10518000104078000080FB000000690080004000B3
:105190000062280000804000100078000080690054
:1051A000C0508800D05080000000E800D050880037
:1051B00011518000D0508000808F5000E9FF3C00EA
:1051C000C05080000080EA00C0508800D2508000AB
:1051D0000200780080007800E0508000808040006D
:1051E000C05080004800DE00804878000200E800DF
:1051F000D0508800D25080000200780080007800F3
:10520000E050800080804000C050800080487800DE
:105210000200E800D050880010002000F050880004
:105220004A00370033C2BF00614060000004E00064
:1052300046003200E0C7B300CAFE0700200020008D
:10524000F05088004100370033C2BF006140600069
:105250000004E0003D003200D05080000000E90072
:10526000D0508800D0508000E10F40001C00320078
:10527000E050800090407800E0C7B30080CF50003D
:1052800005003200E050800090407800D0C7B300A5
:1052900080CF50000B003A00D0C7B300B1FE07002A
:1052A000E05080009040780000C2B30000C0680069
:1052B000ACFE0700E05080000000E800E0508800ED
:1052C00022003700E0508000904078000000E800A5
:1052D000E050880001407800A2FE07001B00370064
:1052E00030002000F05088001800370033C2BF00A3
:1052F000614060000004E00014003200E0C7B30029
:1053000098FE070040002000F05088000F00370092
:1053100033C2BF00614060000004E0000B003200B7
:105320000008800010618800100020007060880074
:1053300010002000505188000000EB00F050880061
:105340000000EB00000F780002003700F00F200093
:10535000000F78001E0078000080FA0000000600B0
:10536000809FBE00821F78000400FA008560A900BB
:1053700030118000004F7800000880001061880024
:1053800001518000F00F2000808F50000600340093
:105390000000EB00005188000000EB003051880055
:1053A0000080EB0070518800005180000000E00098
:1053B00015003A00E0C7B3009E4F100012003A00FB
:1053C0000080EB00705188001000200070608800A1
:1053D00010002000305188000000EB005051880080
:1053E00042E1A800211420009140780080CFB30052
:1053F00000C060003040B30042E1B7009420A80034
:10540000CD22A8003C003700305180000000E000B1
:10541000390032001E80FB0010079800D0072000E2
:105420009E009000808F500015003200E0072000A1
:105430009E009000808F5000010032001300370062
:1054400000518000105188000000EB0000518800DE
:105450000000EB00305188000000EB007060880015
:105460000000EB00405188001000200060608800C0
:105470000000EB00100A88009420A9001E003700ED
:1054800010002000405188001B0037004051800070
:105490000000E0000400320000C2B3001E4F6800AC
:1054A0000000EB004051880000518000F2004000F5
:1054B00000A22000008040001E487800705180004B
:1054C0004801DD0070518000C800DE001E80FB0036
:1054D00000806800800040000062280000804000DA
:1054E00010007800000069007051880000518000B1
:1054F0000000E800005188000080FA004F017800A9
:105500004F00BE0000400600809FBE00821F780052
:105510000400FA0087C0A900B0118000004F780095
:10552000000880001061880001518000F00F200009
:10553000808F5000070034000000EB00005188000D
:105540000000EB00305188000080EB0070518800B3
:1055500031E2A900005180000000E0000C003A0098
:10556000E0C7B3009E4F100009003A000080EB0036
:10557000705188001000200070608800100020002A
:105580003051880010002000505188003A00370048
:10559000305180000000E000370032001E80FB0028
:1055A00010079800D00720009E009000808F5000C8
:1055B00013003200E00720009E009000808F500012
:1055C00001003200110037000051800010518800A6
:1055D0000000EB00005188000000EB003051880013
:1055E0000000EB00706088000000EB004051880074
:1055F000100020006060880031E2A9001E00370022
:1056000010002000405188001B00370040518000EE
:105610000000E0000400320000C2B3001E4F68002A
:105620000000EB004051880000518000F200400073
:1056300000A22000008040001E48780070518000C9
:105640004801DD0070518000C800DE001E80FB00B4
:105650000080680080004000006228000080400058
:10566000100078000000690070518800005180002F
:105670000000E800005188000080FA004F01780027
:105680004F00BE00004006000600FA005064800093
:105690006101B8001207980023079800B0002000AD
:1056A000010020001E019000AE019000800F51000B
:1056B000818F590064003E001E009000AE009000F3
:1056C000006001000B0037001000370016003700A3
:1056D0001C00370022003700280037002E0037005A
:1056E000340037003A0037004000370046003700EA
:1056F0004C003700890107000000E00052003A002A
:1057000010002000506488004F003700C0CCB30068
:105710008E0107000000E0004B003A00200020004E
:10572000506488004800370000CFB30087010700AD
:105730000000E00044003A0030002000506488007F
:105740004100370080C7B300800107000000E0007F
:105750003D003A0040002000506488003A003700C5
:105760000040EB00790107000000E00036003A003D
:1057700050002000506488003300370010CA200019
:10578000A30107000000E0002F003A0060002000A5
:10579000506488002C00370020CA20009C010700BC
:1057A0000000E00028003A007000200050648800EB
:1057B0002500370030CA2000950107000000E000F6
:1057C00021003A0080002000506488001E0037004D
:1057D00040CA20008E0107000000E0001A003A00D5
:1057E00090002000506488001700370050CA200045
:1057F000870107000000E00013003A00A00020002D
:10580000506488001000370060CA20008001070043
:105810000000E0000C003A00B00020005064880056
:105820000900370070CA2000790107000000E0007D
:1058300005003A000000EB00506488008000EB0097
:10584000010F780002003700F20F2000020F7800ED
:105850001E0078000080FA00000006000800FA0030
:10586000000F78002147980060648000300798009E
:105870003E009000E30F5000310032003E009000E7
:10588000E30F50000A003C003E009000E10F500082
:105890001B0032003E009000E10F500020003C0051
:1058A0003E0090000000E0000E0032005100370082
:1058B0003E009000E50F5000320032003E009000A4
:1058C000E50F5000270035003E009000E60F500025
:1058D000340032003E009000E70F50003D003200DF
:1058E000440037000D0107000000E00041003A00CD
:1058F000606480000000E800606488003D003700BC
:10590000C0CCB300110107000000E00039003A00EC
:10591000606480000000E8006064880035003700A3
:1059200000CFB300090107000000E00031003A0099
:10593000606480000000E800606488002D0037008B
:105940002E40900000404000000107000000E000F1
:1059500028003A00606480000000E800606488006D
:10596000240037000040EB00F80007000000E000D2
:1059700020003A00606480000000E8006064880055
:105980001C003700E0C82000210107000000E000F3
:1059900018003A00606480000000E800606488003D
:1059A00014003700F0C82000190107000000E000D3
:1059B00010003A0070648000800078001E007800BB
:1059C00001087800606480000000E80060648800DE
:1059D00008003700D10007000000E00005003A0091
:1059E0000000EB00606488000000EB0020079800D6
:1059F00002003700F00F2000200798002E009000D2
:105A00000080FA00000006000A00FA00000F78008B
:105A100021479800806480006101B9003207980036
:105A200043079800D0002000010020003E019000B4
:105A3000CE019000800F5100818F590099003E00E7
:105A40003E009000CE009000006001000D00370085
:105A500013003700190037002000370027003700F7
:105A60002F003700360037003D0037004400370074
:105A700052003700600037006900370072003700BD
:105A8000800037009E007800B16488000000EB00C1
:105A900050658800806480000000E8008064880011
:105AA0009E0007000000E0007E003A008064800055
:105AB0000000E800806488007A003700C0CCB300A2
:105AC000A20007000000E00076003A008064800039
:105AD0000000E800806488007200370050C5B30001
